{
  "_format": "hh-sol-artifact-1",
  "contractName": "LoanCollateralContract",
  "sourceName": "contracts/LoanCollateralContract.sol",
  "abi": [
    {
      "inputs": [
        {
          "internalType": "address",
          "name": "_nftContract",
          "type": "address"
        }
      ],
      "stateMutability": "nonpayable",
      "type": "constructor"
    },
    {
      "anonymous": false,
      "inputs": [
        {
          "indexed": true,
          "internalType": "uint256",
          "name": "loanId",
          "type": "uint256"
        },
        {
          "indexed": true,
          "internalType": "address",
          "name": "borrower",
          "type": "address"
        }
      ],
      "name": "LoanRepaid",
      "type": "event"
    },
    {
      "anonymous": false,
      "inputs": [
        {
          "indexed": true,
          "internalType": "uint256",
          "name": "loanId",
          "type": "uint256"
        },
        {
          "indexed": true,
          "internalType": "address",
          "name": "borrower",
          "type": "address"
        },
        {
          "indexed": false,
          "internalType": "uint256",
          "name": "amount",
          "type": "uint256"
        },
        {
          "indexed": false,
          "internalType": "uint256",
          "name": "term",
          "type": "uint256"
        },
        {
          "indexed": false,
          "internalType": "uint256",
          "name": "collateralNFTId",
          "type": "uint256"
        }
      ],
      "name": "LoanRequested",
      "type": "event"
    },
    {
      "anonymous": false,
      "inputs": [
        {
          "indexed": true,
          "internalType": "address",
          "name": "previousOwner",
          "type": "address"
        },
        {
          "indexed": true,
          "internalType": "address",
          "name": "newOwner",
          "type": "address"
        }
      ],
      "name": "OwnershipTransferred",
      "type": "event"
    },
    {
      "inputs": [],
      "name": "loanCounter",
      "outputs": [
        {
          "internalType": "uint256",
          "name": "",
          "type": "uint256"
        }
      ],
      "stateMutability": "view",
      "type": "function"
    },
    {
      "inputs": [
        {
          "internalType": "uint256",
          "name": "",
          "type": "uint256"
        }
      ],
      "name": "loans",
      "outputs": [
        {
          "internalType": "address",
          "name": "borrower",
          "type": "address"
        },
        {
          "internalType": "uint256",
          "name": "amount",
          "type": "uint256"
        },
        {
          "internalType": "uint256",
          "name": "term",
          "type": "uint256"
        },
        {
          "internalType": "uint256",
          "name": "startTime",
          "type": "uint256"
        },
        {
          "internalType": "bool",
          "name": "active",
          "type": "bool"
        },
        {
          "internalType": "uint256",
          "name": "collateralNFTId",
          "type": "uint256"
        }
      ],
      "stateMutability": "view",
      "type": "function"
    },
    {
      "inputs": [],
      "name": "nftContract",
      "outputs": [
        {
          "internalType": "contract BasicNFT",
          "name": "",
          "type": "address"
        }
      ],
      "stateMutability": "view",
      "type": "function"
    },
    {
      "inputs": [],
      "name": "owner",
      "outputs": [
        {
          "internalType": "address",
          "name": "",
          "type": "address"
        }
      ],
      "stateMutability": "view",
      "type": "function"
    },
    {
      "inputs": [],
      "name": "renounceOwnership",
      "outputs": [],
      "stateMutability": "nonpayable",
      "type": "function"
    },
    {
      "inputs": [
        {
          "internalType": "uint256",
          "name": "_loanId",
          "type": "uint256"
        }
      ],
      "name": "repayLoan",
      "outputs": [],
      "stateMutability": "payable",
      "type": "function"
    },
    {
      "inputs": [
        {
          "internalType": "uint256",
          "name": "_amount",
          "type": "uint256"
        },
        {
          "internalType": "uint256",
          "name": "_term",
          "type": "uint256"
        },
        {
          "internalType": "uint256",
          "name": "_collateralNFTId",
          "type": "uint256"
        }
      ],
      "name": "requestLoan",
      "outputs": [],
      "stateMutability": "nonpayable",
      "type": "function"
    },
    {
      "inputs": [
        {
          "internalType": "address",
          "name": "newOwner",
          "type": "address"
        }
      ],
      "name": "transferOwnership",
      "outputs": [],
      "stateMutability": "nonpayable",
      "type": "function"
    },
    {
      "stateMutability": "payable",
      "type": "receive"
    }
  ],
  "bytecode": "0x60806040523480156200001157600080fd5b506040516200159a3803806200159a8339818101604052810190620000379190620001d5565b620000576200004b6200009f60201b60201c565b620000a760201b60201c565b80600360006101000a81548173ffffffffffffffffffffffffffffffffffffffff021916908373ffffffffffffffffffffffffffffffffffffffff1602179055505062000207565b600033905090565b60008060009054906101000a900473ffffffffffffffffffffffffffffffffffffffff169050816000806101000a81548173ffffffffffffffffffffffffffffffffffffffff021916908373ffffffffffffffffffffffffffffffffffffffff1602179055508173ffffffffffffffffffffffffffffffffffffffff168173ffffffffffffffffffffffffffffffffffffffff167f8be0079c531659141344cd1fd0a4f28419497f9722a3daafe3b4186f6b6457e060405160405180910390a35050565b600080fd5b600073ffffffffffffffffffffffffffffffffffffffff82169050919050565b60006200019d8262000170565b9050919050565b620001af8162000190565b8114620001bb57600080fd5b50565b600081519050620001cf81620001a4565b92915050565b600060208284031215620001ee57620001ed6200016b565b5b6000620001fe84828501620001be565b91505092915050565b61138380620002176000396000f3fe60806040526004361061007f5760003560e01c8063d56d229d1161004e578063d56d229d14610114578063e1ec3c681461013f578063edadbbfe14610181578063f2fde38b146101aa57610086565b806334d9289e1461008b578063715018a6146100b65780638da5cb5b146100cd578063ab7b1c89146100f857610086565b3661008657005b600080fd5b34801561009757600080fd5b506100a06101d3565b6040516100ad9190610b3a565b60405180910390f35b3480156100c257600080fd5b506100cb6101d9565b005b3480156100d957600080fd5b506100e26101ed565b6040516100ef9190610b96565b60405180910390f35b610112600480360381019061010d9190610be2565b610216565b005b34801561012057600080fd5b506101296104bc565b6040516101369190610c6e565b60405180910390f35b34801561014b57600080fd5b5061016660048036038101906101619190610be2565b6104e2565b60405161017896959493929190610ca4565b60405180910390f35b34801561018d57600080fd5b506101a860048036038101906101a39190610d05565b61054b565b005b3480156101b657600080fd5b506101d160048036038101906101cc9190610d84565b610954565b005b60025481565b6101e16109d7565b6101eb6000610a55565b565b60008060009054906101000a900473ffffffffffffffffffffffffffffffffffffffff16905090565b60006001600083815260200190815260200160002090508060040160009054906101000a900460ff1661027e576040517f08c379a000000000000000000000000000000000000000000000000000000000815260040161027590610e34565b60405180910390fd5b8060000160009054906101000a900473ffffffffffffffffffffffffffffffffffffffff1673ffffffffffffffffffffffffffffffffffffffff163373ffffffffffffffffffffffffffffffffffffffff1614610310576040517f08c379a000000000000000000000000000000000000000000000000000000000815260040161030790610ea0565b60405180910390fd5b8060010154341015610357576040517f08c379a000000000000000000000000000000000000000000000000000000000815260040161034e90610f0c565b60405180910390fd5b3073ffffffffffffffffffffffffffffffffffffffff166108fc349081150290604051600060405180830381858888f1935050505015801561039d573d6000803e3d6000fd5b5060008160040160006101000a81548160ff021916908315150217905550600360009054906101000a900473ffffffffffffffffffffffffffffffffffffffff1673ffffffffffffffffffffffffffffffffffffffff166323b872dd308360000160009054906101000a900473ffffffffffffffffffffffffffffffffffffffff1684600501546040518463ffffffff1660e01b815260040161044293929190610f2c565b600060405180830381600087803b15801561045c57600080fd5b505af1158015610470573d6000803e3d6000fd5b505050503373ffffffffffffffffffffffffffffffffffffffff16827fe69d7686a8bc68278b8c5419579f91716b3ef2ac2fac0d8cf80b8011f8f458a460405160405180910390a35050565b600360009054906101000a900473ffffffffffffffffffffffffffffffffffffffff1681565b60016020528060005260406000206000915090508060000160009054906101000a900473ffffffffffffffffffffffffffffffffffffffff16908060010154908060020154908060030154908060040160009054906101000a900460ff16908060050154905086565b6000831161058e576040517f08c379a000000000000000000000000000000000000000000000000000000000815260040161058590610fd5565b60405180910390fd5b600082116105d1576040517f08c379a00000000000000000000000000000000000000000000000000000000081526004016105c890611041565b60405180910390fd5b3373ffffffffffffffffffffffffffffffffffffffff16600360009054906101000a900473ffffffffffffffffffffffffffffffffffffffff1673ffffffffffffffffffffffffffffffffffffffff16636352211e836040518263ffffffff1660e01b81526004016106439190610b3a565b602060405180830381865afa158015610660573d6000803e3d6000fd5b505050506040513d601f19601f820116820180604052508101906106849190611076565b73ffffffffffffffffffffffffffffffffffffffff16146106da576040517f08c379a00000000000000000000000000000000000000000000000000000000081526004016106d1906110ef565b60405180910390fd5b8247101561071d576040517f08c379a000000000000000000000000000000000000000000000000000000000815260040161071490611181565b60405180910390fd5b600060026000815480929190610732906111d0565b9190505590506040518060c001604052803373ffffffffffffffffffffffffffffffffffffffff168152602001858152602001848152602001428152602001600115158152602001838152506001600083815260200190815260200160002060008201518160000160006101000a81548173ffffffffffffffffffffffffffffffffffffffff021916908373ffffffffffffffffffffffffffffffffffffffff16021790555060208201518160010155604082015181600201556060820151816003015560808201518160040160006101000a81548160ff02191690831515021790555060a08201518160050155905050600360009054906101000a900473ffffffffffffffffffffffffffffffffffffffff1673ffffffffffffffffffffffffffffffffffffffff166323b872dd3330856040518463ffffffff1660e01b815260040161088293929190610f2c565b600060405180830381600087803b15801561089c57600080fd5b505af11580156108b0573d6000803e3d6000fd5b505050503373ffffffffffffffffffffffffffffffffffffffff166108fc859081150290604051600060405180830381858888f193505050501580156108fa573d6000803e3d6000fd5b503373ffffffffffffffffffffffffffffffffffffffff16817ff6cc19e46a340ab5888d736bfc79aef72ae92d12d7b76319d72b0abc170868e686868660405161094693929190611218565b60405180910390a350505050565b61095c6109d7565b600073ffffffffffffffffffffffffffffffffffffffff168173ffffffffffffffffffffffffffffffffffffffff16036109cb576040517f08c379a00000000000000000000000000000000000000000000000000000000081526004016109c2906112c1565b60405180910390fd5b6109d481610a55565b50565b6109df610b19565b73ffffffffffffffffffffffffffffffffffffffff166109fd6101ed565b73ffffffffffffffffffffffffffffffffffffffff1614610a53576040517f08c379a0000000000000000000000000000000000000000000000000000000008152600401610a4a9061132d565b60405180910390fd5b565b60008060009054906101000a900473ffffffffffffffffffffffffffffffffffffffff169050816000806101000a81548173ffffffffffffffffffffffffffffffffffffffff021916908373ffffffffffffffffffffffffffffffffffffffff1602179055508173ffffffffffffffffffffffffffffffffffffffff168173ffffffffffffffffffffffffffffffffffffffff167f8be0079c531659141344cd1fd0a4f28419497f9722a3daafe3b4186f6b6457e060405160405180910390a35050565b600033905090565b6000819050919050565b610b3481610b21565b82525050565b6000602082019050610b4f6000830184610b2b565b92915050565b600073ffffffffffffffffffffffffffffffffffffffff82169050919050565b6000610b8082610b55565b9050919050565b610b9081610b75565b82525050565b6000602082019050610bab6000830184610b87565b92915050565b600080fd5b610bbf81610b21565b8114610bca57600080fd5b50565b600081359050610bdc81610bb6565b92915050565b600060208284031215610bf857610bf7610bb1565b5b6000610c0684828501610bcd565b91505092915050565b6000819050919050565b6000610c34610c2f610c2a84610b55565b610c0f565b610b55565b9050919050565b6000610c4682610c19565b9050919050565b6000610c5882610c3b565b9050919050565b610c6881610c4d565b82525050565b6000602082019050610c836000830184610c5f565b92915050565b60008115159050919050565b610c9e81610c89565b82525050565b600060c082019050610cb96000830189610b87565b610cc66020830188610b2b565b610cd36040830187610b2b565b610ce06060830186610b2b565b610ced6080830185610c95565b610cfa60a0830184610b2b565b979650505050505050565b600080600060608486031215610d1e57610d1d610bb1565b5b6000610d2c86828701610bcd565b9350506020610d3d86828701610bcd565b9250506040610d4e86828701610bcd565b9150509250925092565b610d6181610b75565b8114610d6c57600080fd5b50565b600081359050610d7e81610d58565b92915050565b600060208284031215610d9a57610d99610bb1565b5b6000610da884828501610d6f565b91505092915050565b600082825260208201905092915050565b7f4c6f616e20646f6573206e6f74206578697374206f722068617320616c72656160008201527f6479206265656e20726570616964000000000000000000000000000000000000602082015250565b6000610e1e602e83610db1565b9150610e2982610dc2565b604082019050919050565b60006020820190508181036000830152610e4d81610e11565b9050919050565b7f4f6e6c7920626f72726f7765722063616e20726570617920746865206c6f616e600082015250565b6000610e8a602083610db1565b9150610e9582610e54565b602082019050919050565b60006020820190508181036000830152610eb981610e7d565b9050919050565b7f496e73756666696369656e742066756e647320746f207265706179206c6f616e600082015250565b6000610ef6602083610db1565b9150610f0182610ec0565b602082019050919050565b60006020820190508181036000830152610f2581610ee9565b9050919050565b6000606082019050610f416000830186610b87565b610f4e6020830185610b87565b610f5b6040830184610b2b565b949350505050565b7f4c6f616e20616d6f756e74206d7573742062652067726561746572207468616e60008201527f2030000000000000000000000000000000000000000000000000000000000000602082015250565b6000610fbf602283610db1565b9150610fca82610f63565b604082019050919050565b60006020820190508181036000830152610fee81610fb2565b9050919050565b7f5465726d206d7573742062652067726561746572207468616e20300000000000600082015250565b600061102b601b83610db1565b915061103682610ff5565b602082019050919050565b6000602082019050818103600083015261105a8161101e565b9050919050565b60008151905061107081610d58565b92915050565b60006020828403121561108c5761108b610bb1565b5b600061109a84828501611061565b91505092915050565b7f596f7520646f6e2774206f776e2074686973204e465400000000000000000000600082015250565b60006110d9601683610db1565b91506110e4826110a3565b602082019050919050565b60006020820190508181036000830152611108816110cc565b9050919050565b7f496e73756666696369656e742066756e647320696e20746865206c6f616e206360008201527f6f6e747261637400000000000000000000000000000000000000000000000000602082015250565b600061116b602783610db1565b91506111768261110f565b604082019050919050565b6000602082019050818103600083015261119a8161115e565b9050919050565b7f4e487b7100000000000000000000000000000000000000000000000000000000600052601160045260246000fd5b60006111db82610b21565b91507fffffffffffffffffffffffffffffffffffffffffffffffffffffffffffffffff820361120d5761120c6111a1565b5b600182019050919050565b600060608201905061122d6000830186610b2b565b61123a6020830185610b2b565b6112476040830184610b2b565b949350505050565b7f4f776e61626c653a206e6577206f776e657220697320746865207a65726f206160008201527f6464726573730000000000000000000000000000000000000000000000000000602082015250565b60006112ab602683610db1565b91506112b68261124f565b604082019050919050565b600060208201905081810360008301526112da8161129e565b9050919050565b7f4f776e61626c653a2063616c6c6572206973206e6f7420746865206f776e6572600082015250565b6000611317602083610db1565b9150611322826112e1565b602082019050919050565b600060208201905081810360008301526113468161130a565b905091905056fea2646970667358221220e29b4cc9eeea95fe196df1c974028dbc86ccdcbe1758680df97bd5569ee9721e64736f6c63430008180033",
  "linkReferences": {},
  "deployedLinkReferences": {}
}