{
  "_format": "hh-sol-artifact-1",
  "contractName": "LoanCollateralContract",
  "sourceName": "contracts/LoanCollateralContract.sol",
  "abi": [
    {
      "inputs": [
        {
          "internalType": "address",
          "name": "_nftContract",
          "type": "address"
        }
      ],
      "stateMutability": "nonpayable",
      "type": "constructor"
    },
    {
      "anonymous": false,
      "inputs": [
        {
          "indexed": true,
          "internalType": "uint256",
          "name": "loanId",
          "type": "uint256"
        },
        {
          "indexed": true,
          "internalType": "address",
          "name": "borrower",
          "type": "address"
        }
      ],
      "name": "LoanRepaid",
      "type": "event"
    },
    {
      "anonymous": false,
      "inputs": [
        {
          "indexed": true,
          "internalType": "uint256",
          "name": "loanId",
          "type": "uint256"
        },
        {
          "indexed": true,
          "internalType": "address",
          "name": "borrower",
          "type": "address"
        },
        {
          "indexed": false,
          "internalType": "uint256",
          "name": "amount",
          "type": "uint256"
        },
        {
          "indexed": false,
          "internalType": "uint256",
          "name": "term",
          "type": "uint256"
        },
        {
          "indexed": false,
          "internalType": "uint256",
          "name": "collateralNFTId",
          "type": "uint256"
        }
      ],
      "name": "LoanRequested",
      "type": "event"
    },
    {
      "anonymous": false,
      "inputs": [
        {
          "indexed": true,
          "internalType": "address",
          "name": "previousOwner",
          "type": "address"
        },
        {
          "indexed": true,
          "internalType": "address",
          "name": "newOwner",
          "type": "address"
        }
      ],
      "name": "OwnershipTransferred",
      "type": "event"
    },
    {
      "inputs": [
        {
          "internalType": "address",
          "name": "_borrower",
          "type": "address"
        },
        {
          "internalType": "bool",
          "name": "_onlyActive",
          "type": "bool"
        }
      ],
      "name": "getLoansByAddress",
      "outputs": [
        {
          "components": [
            {
              "internalType": "uint256",
              "name": "id",
              "type": "uint256"
            },
            {
              "internalType": "address",
              "name": "borrower",
              "type": "address"
            },
            {
              "internalType": "uint256",
              "name": "amount",
              "type": "uint256"
            },
            {
              "internalType": "uint256",
              "name": "term",
              "type": "uint256"
            },
            {
              "internalType": "uint256",
              "name": "startTime",
              "type": "uint256"
            },
            {
              "internalType": "bool",
              "name": "active",
              "type": "bool"
            },
            {
              "internalType": "uint256",
              "name": "collateralNFTId",
              "type": "uint256"
            }
          ],
          "internalType": "struct LoanCollateralContract.Loan[]",
          "name": "",
          "type": "tuple[]"
        }
      ],
      "stateMutability": "view",
      "type": "function"
    },
    {
      "inputs": [],
      "name": "loanCounter",
      "outputs": [
        {
          "internalType": "uint256",
          "name": "",
          "type": "uint256"
        }
      ],
      "stateMutability": "view",
      "type": "function"
    },
    {
      "inputs": [
        {
          "internalType": "uint256",
          "name": "",
          "type": "uint256"
        }
      ],
      "name": "loans",
      "outputs": [
        {
          "internalType": "uint256",
          "name": "id",
          "type": "uint256"
        },
        {
          "internalType": "address",
          "name": "borrower",
          "type": "address"
        },
        {
          "internalType": "uint256",
          "name": "amount",
          "type": "uint256"
        },
        {
          "internalType": "uint256",
          "name": "term",
          "type": "uint256"
        },
        {
          "internalType": "uint256",
          "name": "startTime",
          "type": "uint256"
        },
        {
          "internalType": "bool",
          "name": "active",
          "type": "bool"
        },
        {
          "internalType": "uint256",
          "name": "collateralNFTId",
          "type": "uint256"
        }
      ],
      "stateMutability": "view",
      "type": "function"
    },
    {
      "inputs": [],
      "name": "nftContract",
      "outputs": [
        {
          "internalType": "contract BasicNFT",
          "name": "",
          "type": "address"
        }
      ],
      "stateMutability": "view",
      "type": "function"
    },
    {
      "inputs": [],
      "name": "owner",
      "outputs": [
        {
          "internalType": "address",
          "name": "",
          "type": "address"
        }
      ],
      "stateMutability": "view",
      "type": "function"
    },
    {
      "inputs": [],
      "name": "renounceOwnership",
      "outputs": [],
      "stateMutability": "nonpayable",
      "type": "function"
    },
    {
      "inputs": [
        {
          "internalType": "uint256",
          "name": "_loanId",
          "type": "uint256"
        }
      ],
      "name": "repayLoan",
      "outputs": [],
      "stateMutability": "payable",
      "type": "function"
    },
    {
      "inputs": [
        {
          "internalType": "uint256",
          "name": "_amount",
          "type": "uint256"
        },
        {
          "internalType": "uint256",
          "name": "_term",
          "type": "uint256"
        },
        {
          "internalType": "uint256",
          "name": "_collateralNFTId",
          "type": "uint256"
        }
      ],
      "name": "requestLoan",
      "outputs": [],
      "stateMutability": "nonpayable",
      "type": "function"
    },
    {
      "inputs": [
        {
          "internalType": "address",
          "name": "newOwner",
          "type": "address"
        }
      ],
      "name": "transferOwnership",
      "outputs": [],
      "stateMutability": "nonpayable",
      "type": "function"
    },
    {
      "stateMutability": "payable",
      "type": "receive"
    }
  ],
  "bytecode": "0x60806040523480156200001157600080fd5b5060405162001ac538038062001ac58339818101604052810190620000379190620001d5565b620000576200004b6200009f60201b60201c565b620000a760201b60201c565b80600360006101000a81548173ffffffffffffffffffffffffffffffffffffffff021916908373ffffffffffffffffffffffffffffffffffffffff1602179055505062000207565b600033905090565b60008060009054906101000a900473ffffffffffffffffffffffffffffffffffffffff169050816000806101000a81548173ffffffffffffffffffffffffffffffffffffffff021916908373ffffffffffffffffffffffffffffffffffffffff1602179055508173ffffffffffffffffffffffffffffffffffffffff168173ffffffffffffffffffffffffffffffffffffffff167f8be0079c531659141344cd1fd0a4f28419497f9722a3daafe3b4186f6b6457e060405160405180910390a35050565b600080fd5b600073ffffffffffffffffffffffffffffffffffffffff82169050919050565b60006200019d8262000170565b9050919050565b620001af8162000190565b8114620001bb57600080fd5b50565b600081519050620001cf81620001a4565b92915050565b600060208284031215620001ee57620001ed6200016b565b5b6000620001fe84828501620001be565b91505092915050565b6118ae80620002176000396000f3fe60806040526004361061008a5760003560e01c8063ab7b1c8911610059578063ab7b1c8914610140578063d56d229d1461015c578063e1ec3c6814610187578063edadbbfe146101ca578063f2fde38b146101f357610091565b806334d9289e14610096578063715018a6146100c15780638da5cb5b146100d8578063a00f24971461010357610091565b3661009157005b600080fd5b3480156100a257600080fd5b506100ab61021c565b6040516100b89190610e01565b60405180910390f35b3480156100cd57600080fd5b506100d6610222565b005b3480156100e457600080fd5b506100ed610236565b6040516100fa9190610e5d565b60405180910390f35b34801561010f57600080fd5b5061012a60048036038101906101259190610ee1565b61025f565b604051610137919061108b565b60405180910390f35b61015a600480360381019061015591906110d9565b610472565b005b34801561016857600080fd5b50610171610718565b60405161017e9190611165565b60405180910390f35b34801561019357600080fd5b506101ae60048036038101906101a991906110d9565b61073e565b6040516101c1979695949392919061118f565b60405180910390f35b3480156101d657600080fd5b506101f160048036038101906101ec91906111fe565b6107ad565b005b3480156101ff57600080fd5b5061021a60048036038101906102159190611251565b610bc6565b005b60025481565b61022a610c49565b6102346000610cc7565b565b60008060009054906101000a900473ffffffffffffffffffffffffffffffffffffffff16905090565b6060600060025467ffffffffffffffff81111561027f5761027e61127e565b5b6040519080825280602002602001820160405280156102b857816020015b6102a5610d93565b81526020019060019003908161029d5790505b5090506000805b600254811015610463578573ffffffffffffffffffffffffffffffffffffffff166001600083815260200190815260200160002060010160009054906101000a900473ffffffffffffffffffffffffffffffffffffffff1673ffffffffffffffffffffffffffffffffffffffff16148015610363575084158061036257506001600082815260200190815260200160002060050160009054906101000a900460ff165b5b1561045657600160008281526020019081526020016000206040518060e0016040529081600082015481526020016001820160009054906101000a900473ffffffffffffffffffffffffffffffffffffffff1673ffffffffffffffffffffffffffffffffffffffff1673ffffffffffffffffffffffffffffffffffffffff1681526020016002820154815260200160038201548152602001600482015481526020016005820160009054906101000a900460ff1615151515815260200160068201548152505083838151811061043c5761043b6112ad565b5b602002602001018190525081806104529061130b565b9250505b80806001019150506102bf565b50808252819250505092915050565b60006001600083815260200190815260200160002090508060050160009054906101000a900460ff166104da576040517f08c379a00000000000000000000000000000000000000000000000000000000081526004016104d1906113d6565b60405180910390fd5b8060010160009054906101000a900473ffffffffffffffffffffffffffffffffffffffff1673ffffffffffffffffffffffffffffffffffffffff163373ffffffffffffffffffffffffffffffffffffffff161461056c576040517f08c379a000000000000000000000000000000000000000000000000000000000815260040161056390611442565b60405180910390fd5b80600201543410156105b3576040517f08c379a00000000000000000000000000000000000000000000000000000000081526004016105aa906114ae565b60405180910390fd5b3073ffffffffffffffffffffffffffffffffffffffff166108fc349081150290604051600060405180830381858888f193505050501580156105f9573d6000803e3d6000fd5b5060008160050160006101000a81548160ff021916908315150217905550600360009054906101000a900473ffffffffffffffffffffffffffffffffffffffff1673ffffffffffffffffffffffffffffffffffffffff166323b872dd308360010160009054906101000a900473ffffffffffffffffffffffffffffffffffffffff1684600601546040518463ffffffff1660e01b815260040161069e939291906114ce565b600060405180830381600087803b1580156106b857600080fd5b505af11580156106cc573d6000803e3d6000fd5b505050503373ffffffffffffffffffffffffffffffffffffffff16827fe69d7686a8bc68278b8c5419579f91716b3ef2ac2fac0d8cf80b8011f8f458a460405160405180910390a35050565b600360009054906101000a900473ffffffffffffffffffffffffffffffffffffffff1681565b60016020528060005260406000206000915090508060000154908060010160009054906101000a900473ffffffffffffffffffffffffffffffffffffffff16908060020154908060030154908060040154908060050160009054906101000a900460ff16908060060154905087565b600083116107f0576040517f08c379a00000000000000000000000000000000000000000000000000000000081526004016107e790611577565b60405180910390fd5b60008211610833576040517f08c379a000000000000000000000000000000000000000000000000000000000815260040161082a906115e3565b60405180910390fd5b3373ffffffffffffffffffffffffffffffffffffffff16600360009054906101000a900473ffffffffffffffffffffffffffffffffffffffff1673ffffffffffffffffffffffffffffffffffffffff16636352211e836040518263ffffffff1660e01b81526004016108a59190610e01565b602060405180830381865afa1580156108c2573d6000803e3d6000fd5b505050506040513d601f19601f820116820180604052508101906108e69190611618565b73ffffffffffffffffffffffffffffffffffffffff161461093c576040517f08c379a000000000000000000000000000000000000000000000000000000000815260040161093390611691565b60405180910390fd5b8247101561097f576040517f08c379a000000000000000000000000000000000000000000000000000000000815260040161097690611723565b60405180910390fd5b6000600260008154809291906109949061130b565b9190505590506040518060e001604052808281526020013373ffffffffffffffffffffffffffffffffffffffff16815260200185815260200184815260200142815260200160011515815260200183815250600160008381526020019081526020016000206000820151816000015560208201518160010160006101000a81548173ffffffffffffffffffffffffffffffffffffffff021916908373ffffffffffffffffffffffffffffffffffffffff16021790555060408201518160020155606082015181600301556080820151816004015560a08201518160050160006101000a81548160ff02191690831515021790555060c08201518160060155905050600360009054906101000a900473ffffffffffffffffffffffffffffffffffffffff1673ffffffffffffffffffffffffffffffffffffffff166323b872dd3330856040518463ffffffff1660e01b8152600401610af4939291906114ce565b600060405180830381600087803b158015610b0e57600080fd5b505af1158015610b22573d6000803e3d6000fd5b505050503373ffffffffffffffffffffffffffffffffffffffff166108fc859081150290604051600060405180830381858888f19350505050158015610b6c573d6000803e3d6000fd5b503373ffffffffffffffffffffffffffffffffffffffff16817ff6cc19e46a340ab5888d736bfc79aef72ae92d12d7b76319d72b0abc170868e6868686604051610bb893929190611743565b60405180910390a350505050565b610bce610c49565b600073ffffffffffffffffffffffffffffffffffffffff168173ffffffffffffffffffffffffffffffffffffffff1603610c3d576040517f08c379a0000000000000000000000000000000000000000000000000000000008152600401610c34906117ec565b60405180910390fd5b610c4681610cc7565b50565b610c51610d8b565b73ffffffffffffffffffffffffffffffffffffffff16610c6f610236565b73ffffffffffffffffffffffffffffffffffffffff1614610cc5576040517f08c379a0000000000000000000000000000000000000000000000000000000008152600401610cbc90611858565b60405180910390fd5b565b60008060009054906101000a900473ffffffffffffffffffffffffffffffffffffffff169050816000806101000a81548173ffffffffffffffffffffffffffffffffffffffff021916908373ffffffffffffffffffffffffffffffffffffffff1602179055508173ffffffffffffffffffffffffffffffffffffffff168173ffffffffffffffffffffffffffffffffffffffff167f8be0079c531659141344cd1fd0a4f28419497f9722a3daafe3b4186f6b6457e060405160405180910390a35050565b600033905090565b6040518060e0016040528060008152602001600073ffffffffffffffffffffffffffffffffffffffff168152602001600081526020016000815260200160008152602001600015158152602001600081525090565b6000819050919050565b610dfb81610de8565b82525050565b6000602082019050610e166000830184610df2565b92915050565b600073ffffffffffffffffffffffffffffffffffffffff82169050919050565b6000610e4782610e1c565b9050919050565b610e5781610e3c565b82525050565b6000602082019050610e726000830184610e4e565b92915050565b600080fd5b610e8681610e3c565b8114610e9157600080fd5b50565b600081359050610ea381610e7d565b92915050565b60008115159050919050565b610ebe81610ea9565b8114610ec957600080fd5b50565b600081359050610edb81610eb5565b92915050565b60008060408385031215610ef857610ef7610e78565b5b6000610f0685828601610e94565b9250506020610f1785828601610ecc565b9150509250929050565b600081519050919050565b600082825260208201905092915050565b6000819050602082019050919050565b610f5681610de8565b82525050565b610f6581610e3c565b82525050565b610f7481610ea9565b82525050565b60e082016000820151610f906000850182610f4d565b506020820151610fa36020850182610f5c565b506040820151610fb66040850182610f4d565b506060820151610fc96060850182610f4d565b506080820151610fdc6080850182610f4d565b5060a0820151610fef60a0850182610f6b565b5060c082015161100260c0850182610f4d565b50505050565b60006110148383610f7a565b60e08301905092915050565b6000602082019050919050565b600061103882610f21565b6110428185610f2c565b935061104d83610f3d565b8060005b8381101561107e5781516110658882611008565b975061107083611020565b925050600181019050611051565b5085935050505092915050565b600060208201905081810360008301526110a5818461102d565b905092915050565b6110b681610de8565b81146110c157600080fd5b50565b6000813590506110d3816110ad565b92915050565b6000602082840312156110ef576110ee610e78565b5b60006110fd848285016110c4565b91505092915050565b6000819050919050565b600061112b61112661112184610e1c565b611106565b610e1c565b9050919050565b600061113d82611110565b9050919050565b600061114f82611132565b9050919050565b61115f81611144565b82525050565b600060208201905061117a6000830184611156565b92915050565b61118981610ea9565b82525050565b600060e0820190506111a4600083018a610df2565b6111b16020830189610e4e565b6111be6040830188610df2565b6111cb6060830187610df2565b6111d86080830186610df2565b6111e560a0830185611180565b6111f260c0830184610df2565b98975050505050505050565b60008060006060848603121561121757611216610e78565b5b6000611225868287016110c4565b9350506020611236868287016110c4565b9250506040611247868287016110c4565b9150509250925092565b60006020828403121561126757611266610e78565b5b600061127584828501610e94565b91505092915050565b7f4e487b7100000000000000000000000000000000000000000000000000000000600052604160045260246000fd5b7f4e487b7100000000000000000000000000000000000000000000000000000000600052603260045260246000fd5b7f4e487b7100000000000000000000000000000000000000000000000000000000600052601160045260246000fd5b600061131682610de8565b91507fffffffffffffffffffffffffffffffffffffffffffffffffffffffffffffffff8203611348576113476112dc565b5b600182019050919050565b600082825260208201905092915050565b7f4c6f616e20646f6573206e6f74206578697374206f722068617320616c72656160008201527f6479206265656e20726570616964000000000000000000000000000000000000602082015250565b60006113c0602e83611353565b91506113cb82611364565b604082019050919050565b600060208201905081810360008301526113ef816113b3565b9050919050565b7f4f6e6c7920626f72726f7765722063616e20726570617920746865206c6f616e600082015250565b600061142c602083611353565b9150611437826113f6565b602082019050919050565b6000602082019050818103600083015261145b8161141f565b9050919050565b7f496e73756666696369656e742066756e647320746f207265706179206c6f616e600082015250565b6000611498602083611353565b91506114a382611462565b602082019050919050565b600060208201905081810360008301526114c78161148b565b9050919050565b60006060820190506114e36000830186610e4e565b6114f06020830185610e4e565b6114fd6040830184610df2565b949350505050565b7f4c6f616e20616d6f756e74206d7573742062652067726561746572207468616e60008201527f2030000000000000000000000000000000000000000000000000000000000000602082015250565b6000611561602283611353565b915061156c82611505565b604082019050919050565b6000602082019050818103600083015261159081611554565b9050919050565b7f5465726d206d7573742062652067726561746572207468616e20300000000000600082015250565b60006115cd601b83611353565b91506115d882611597565b602082019050919050565b600060208201905081810360008301526115fc816115c0565b9050919050565b60008151905061161281610e7d565b92915050565b60006020828403121561162e5761162d610e78565b5b600061163c84828501611603565b91505092915050565b7f596f7520646f6e2774206f776e2074686973204e465400000000000000000000600082015250565b600061167b601683611353565b915061168682611645565b602082019050919050565b600060208201905081810360008301526116aa8161166e565b9050919050565b7f496e73756666696369656e742066756e647320696e20746865206c6f616e206360008201527f6f6e747261637400000000000000000000000000000000000000000000000000602082015250565b600061170d602783611353565b9150611718826116b1565b604082019050919050565b6000602082019050818103600083015261173c81611700565b9050919050565b60006060820190506117586000830186610df2565b6117656020830185610df2565b6117726040830184610df2565b949350505050565b7f4f776e61626c653a206e6577206f776e657220697320746865207a65726f206160008201527f6464726573730000000000000000000000000000000000000000000000000000602082015250565b60006117d6602683611353565b91506117e18261177a565b604082019050919050565b60006020820190508181036000830152611805816117c9565b9050919050565b7f4f776e61626c653a2063616c6c6572206973206e6f7420746865206f776e6572600082015250565b6000611842602083611353565b915061184d8261180c565b602082019050919050565b6000602082019050818103600083015261187181611835565b905091905056fea26469706673582212207403999d991d68b8d703a7e40ed23c3bf9108c0fde3903af3363860b1db7471b64736f6c63430008180033",
  "linkReferences": {},
  "deployedLinkReferences": {}
}